:100000000C9446000C945D000C945D000C945D0013
:100010000C945D000C945D000C945D000C945D00EC
:100020000C945D000C945D000C945D000C945D00DC
:100030000C945D000C945D000C945D000C945D00CC
:100040000C945D000C945D000C945D000C945D00BC
:100050000C945D000C945D000C945D000C945D00AC
:100060000C945D000C945D000C945D000C945D009C
:100070000C945D000C945D000C945D000C945D008C
:100080000C945D000C945D000C945D0011241FBE67
:10009000CFEFD0E4DEBFCDBF11E0A0E0B1E0E2E2FF
:1000A000F2E000E00BBF02C007900D92AE30B10746
:1000B000D9F70E9499000C940F010C940000CF9383
:1000C000DF9300D01F92CDB7DEB789837B836A832D
:1000D00089818A3031F48A819B81BC018DE00E9444
:1000E0005F0080EC90E0FC018081882F90E08072BE
:1000F0009927892BB1F386EC90E02981FC012083BC
:1001000080E090E00F900F900F90DF91CF910895D5
:10011000CF93DF93CDB7DEB78AE790E02AE730E0F0
:10012000F9012081206EFC0120830000DF91CF9136
:100130000895CF93DF9300D0CDB7DEB781E290E092
:10014000FC01108282E290E02FEFFC01208384E228
:1001500090E02FEFFC01208385E290E0FC0110820B
:100160000E94880088E790E0FC01808191819A8359
:10017000898389819A818A3A910528F085E290E005
:1001800021E0FC01208389819A81883C910528F037
:1001900085E290E023E0FC01208389819A818C3202
:1001A000914028F085E290E027E0FC0120838981DE
:1001B0009A818039914028F085E290E02FE0FC019F
:1001C000208389819A81823C914028F085E290E0E9
:1001D0002FE1FC01208389819A818B3D914028F099
:1001E00085E290E02FE3FC01208389819A81843F9E
:1001F000914028F085E290E02FE7FC01208389817F
:100200009A818D30924030F085E290E02FEFFC0132
:100210002083A8CF85E290E0FC011082A3CFF89460
:02022000FFCF0E
:0E02220000000002000000005F00000000006D
:00000001FF
